:020000040000FA
:1000000000008A1103281530FE000130FF00803007
:100010008A110000F4208A11000083120313A1004A
:100020007F08A0001730A2000130A3008312031341
:100030002008A4002108A500FF30A007031CA1038D
:100040002408250403199B2804302207A400A501D5
:10005000A50D2308A5072408FE002508FF00803011
:100060008A110000F4208A11000083120313A700F4
:100070007F08A6002208FE002308FF0080308A11B6
:100080000000F4208A11000083120313A900A500C8
:100090007F08A800A40002302207A400A501A50D36
:1000A0002308A5072408FE002508FF0080308A11D8
:1000B0000000F4208A11000083120313A500AB0096
:1000C0007F08A400AA00831203132608AA002708A9
:1000D000AB00FF30A607031CA7032A082B04031953
:1000E00094282808FE002908FF0080308A110000AB
:1000F000E1208A11000083120313AA00240883124E
:1001000003138400831383120313251883172A080B
:1001100083120313800083120313A80A0319A90A88
:10012000A40A0319A50A6328063083120313A20741
:100130000318A30A16288A1100009F2808004030DF
:10014000831603138F0086018312031386010D307B
:100150008316031381006300FF30831203138600AC
:100160000A30831603138100630083120313860190
:100170000A308316031381006300FF3083120313D8
:1001800086000A3083160313810063008312031371
:1001900086010A308316031381006300FF30831247
:1001A000031386000A308316031381006300831251
:1001B000031386010A308316031381006300A42809
:1001C0000800003A0319E828803A0319EF280034A0
:1001D0007E08840083137F188317000808007F08B7
:1001E0008A007E0882000800003A0319FC28803A41
:1001F00003190629FF0100347E08840083137F1849
:1002000083170008FF00840A000808008A11000014
:10021000EF20FD00FE0FFF03FF0A8A110000EF2010
:10022000FC007D08FF007C080800013400341D3408
:0C02300001342C3400340134003400345C
:02400E001C3F55
:02401000FFFFB0
:00000001FF
